:1000000000120020550B00005B4B0000410B00006C
:10001000410B0000410B0000410B000000000000FC
:10002000000000000000000000000000150D0000AE
:10003000410B000000000000B10C0000410B00006B
:10004000C90E0000C90E0000C90E0000C90E000054
:10005000C90E0000C90E0000C90E0000C90E000044
:10006000C90E0000C90E0000C90E0000C90E000034
:10007000C90E0000C90E0000C90E0000C90E000024
:10008000C90E0000C90E0000C90E0000C90E000014
:10009000C90E0000C90E0000C90E0000C90E000004
:1000A000C90E0000C90E0000C90E0000C90E0000F4
:1000B000C90E0000C90E0000C90E0000C90E0000E4
:1000C000C90E0000C90E0000C90E0000C90E0000D4
:0C00D000C90E0000C90E0000C90E00009F
:1000DC0053B94AB9002908BF00281CBF4FF0FF31A3
:1000EC004FF0FF3000F00CB8ADF1080C6DE904CE08
:1000FC0000F008F8DDF804E0DDE9022304B07047F5
:10010C00704700BF2DE9F04786468C460846089E8E
:10011C00154674461946002B40F0C2808542B2FA4F
:10012C0082F245D94AB1C2F1200300FA02FC2EFA40
:10013C0003F3954043EA0C0C94404FEA154EA8B2D9
:10014C00BCFBFEF8230C0EFB18CC08FB00F943EAB1
:10015C000C43994528D9EB1808F1FF3704D299457F
:10016C0002D9A8F102072B44A3EB0903A4B2B3FBF9
:10017C00FEFC0EFB1C330CFB00F044EA0344A042D3
:10018C0014D92C190CF1FF3304D2A04202D9ACF1D2
:10019C0002032C44241A43EA07401EB1D440002326
:1001AC0034607360BDE8F0874746DDE76346F1E7EE
:1001BC0092BB431B01214FEA154EAFB2B3FBFEFCC1
:1001CC00200C0EFB1C330CFB07F840EA034398454C
:1001DC0062D9EB180CF1FF3004D2984502D9ACF17E
:1001EC0002002B44A3EB0803A4B2B3FBFEFC0EFBF2
:1001FC001C330CFB07F744EA0344A7424ED92C19D5
:10020C000CF1FF3304D2A74202D9ACF102032C4407
:10021C00E41B43EA0040C0E7C2F1200320FA03F1DB
:10022C00954090402EFA03F303434FEA154EAFB2BC
:10023C00B1FBFEFC0EFB1C10190C0CFB07F841EA81
:10024C000041884504FA02F422D969180CF1FF30F8
:10025C0004D2884502D9ACF102002944A1EB080173
:10026C009BB2B1FBFEFC0EFB1C110CFB07F743EA27
:10027C0001439F420ED9EB180CF1FF3104D29F427F
:10028C0002D9ACF102012B44DB1B41EA004192E79D
:10029C006046E3E76146F7E76046A3E76346B7E7E6
:1002AC00834206D916B9002108467BE7C6E900E06F
:1002BC00F9E7B3FA83F78FB9834201D3724508D8B3
:1002CC00BEEB020460EB030301209C461EB9002127
:1002DC0068E73846FAE7C6E9004CF8E7C7F1200CA6
:1002EC00BB4022FA0CF41C432EFA0CF120FA0CF34E
:1002FC00B84001434FEA14490EFA07F5B3FBF9F87D
:10030C001FFA84FE09FB18300B0C08FB0EFA43EAAB
:10031C0000439A4502FA07F240D9E31808F1FF307E
:10032C0004D29A4502D9A8F102002344A3EB0A0394
:10033C0089B2B3FBF9F809FB183308FB0EFE41EA4E
:10034C0003418E452CD9611808F1FF3304D28E4538
:10035C0002D9A8F10203214443EA0040A0FB029811
:10036C00A1EB0E014145CE46434602D306D14D4585
:10037C0004D2B9EB020E68EB04030138002EA6D0B0
:10038C00B5EB0E0261EB030101FA0CFC22FA07F348
:10039C004CEA0303F940C6E9003198E74046C5E74B
:1003AC004346D9E7034613F8012B002AFBD1181A50
:1003BC000138704780B584B000AF1C4800F086F857
:1003CC0001211B4804F01FFA0A2004F030FA002126
:1003DC00174804F018FA0023FB600023BB600EE002
:1003EC0000237B6005E0FB680133FB607B68013315
:1003FC007B607B68632BF6D9BB680133BB60BB6841
:10040C00632BEDD9BB68642B07D17B68642B04D1BB
:10041C00FB6842F21072934203D0064800F056F883
:10042C0002E0054800F052F800BFFDE7C05500009F
:10043C0050560000C4550000C85500002DE9734308
:10044C001E4DAC68E36B2BBBE36A53BBDFF86C80CF
:10045C001B4C1C4EAB681B6903B301220DF1070149
:10046C0040469847012819D19DF807200A2A01D047
:10047C000D2A1BD12368002B18DD4FF0000906F85C
:10048C000390104910480022002302F073FFC4F8B7
:10049C000090DFE7284698470028D5D102B0BDE888
:1004AC007083064898470028D0D1F7E723681E2BA5
:1004BC009EBF591CF2542160CCE700BF6054000071
:1004CC00D00200200E040020C80000202DE9784145
:1004DC000646FFF767FFDFF8208005460024AC4294
:1004EC0001DBBDE87881315DD8F8083002485B68E3
:1004FC0098470134F3E700BF6054000038B5194C3D
:10050C00204604F008FD20B9174804F0A5F9002096
:10051C0038BD164804F0FFFC0028F8D0144804F04D
:10052C0056F90028F3DB114804F0F5FC0028EED056
:10053C00104804F04CF90028E9DB0F4804F08CF962
:10054C00A56855B12B6C43B10C4900222046984745
:10055C002B6A23B9FFF72EFFFCE70948D5E72046A5
:10056C009847F7E760540000CA5500004C5400004F
:10057C005056000048560000E155000049040000A8
:10058C0000560000014B1B68184700BF00000020FC
:10059C0030B585B004460D4610220021684604F0A3
:1005AC00ABFE02238DF802302A46044B0193214600
:1005BC00684603F0AFFE05B030BD00BF91050000EA
:1005CC0080B505460E461746984603F053FC034685
:1005DC0004F0FEFEDFF81890044649F8003042465D
:1005EC0030463946A84754F8090000F02DFB00BFEF
:1005FC00080000002DE9F047058B044628079046BB
:10060C0011D4022905F0070540F0CD80204604F0F6
:10061C0099F978B10138218B042811D8DFE800F062
:10062C00C3106D85950001290CBF45F0100545F0F0
:10063C002005258388F31188BFF36F8FBDE8F08701
:10064C0001F0070AAA4500F0A6800027B9463E46ED
:10065C00A368002B00F0BD8041F00801218388F3D2
:10066C001188BFF36F8FA168002900F0BB800D6863
:10067C00002900F0B780D1F804803346524620465A
:10068C00C047002D76D02B6829461D46F0E701F0B7
:10069C0007035A1F012A1BD8002221F00701062B41
:1006AC00276889B2C4E9002209D13B4603E0628B7A
:1006BC00013262831B68002BF9D141F002012183C6
:1006CC00204604F03FF900287BD041F0200177E070
:1006DC00042B0AD121F0070189B22183204604F0B2
:1006EC0031F910B141F020012183218B01F0070A6F
:1006FC00AA4550D00027B946AAE7236921F0070183
:10070C0041F00601062DD3F8009021832DD1B9F1CB
:10071C00000F40D041F00801218388F31188BFF30A
:10072C006F8F3A492046C84729E021F00701236919
:10073C0041F0040189B2042DD3F804902183E6D052
:10074C0000273E464FF0040A82E721F00701236997
:10075C0041F0050189B2052DD3F808902183D6D03C
:10076C0000273E464FF0050A72E700273E464FF041
:10077C00060A6DE72B4687E7B9F1000FD1D14FF090
:10078C002003EFF3118883F31288BFF36F8F238B51
:10079C0023F008032383258BEA062ED525F01003BE
:1007AC00238305F007056669218B002EBFF66FAF1A
:1007BC0000232768C4E9003321F0070141F001014F
:1007CC002183218B01F0070AAA454FF000097FF421
:1007DC003FAF002F9BD041F00801218388F3118893
:1007EC00BFF36F8F002FC7D03D6839463346524652
:1007FC00204604F0D3F82F46F4E7AB067FF51AAF8A
:10080C0025F02003238305F00705FFE6D5490000FA
:10081C00014B0360002070475856000030BFFFF7B3
:10082C00FDBF00BF114B124A2DE9F041D518DFF87E
:10083C004480013DB5FBF3F55D430F4B08EB03041E
:10084C00013CB4FBF3F403FB04540E1B07460B49A9
:10085C00304604F043FD701942460021083E04F076
:10086C004BFD3E6704F10800BDE8F081010000007B
:10087C00000000000400000004000000C05500004F
:10088C00044B99685869884203D003494FF0805251
:10089C000A607047D403002004ED00E070B5264BCD
:1008AC0015469A6A12F0100F9A6A14BF112410247C
:1008BC0012F0080F9A6A18BF1224920706460AD53E
:1008CC00586B9A6A140634D519B19A6A22F08002D0
:1008DC009A62132401E06FF01500174B9A6A12F01C
:1008EC00010F9A6A18BF142412F0200F9A6A18BFCD
:1008FC001524D20602D49B6A9B070AD50E4B5B6863
:10090C00190506D5314600F07BFA10B180F3098841
:10091C000224094B9A6A920642BF5A6A22F4005288
:10092C005A629A6A42F0FF029A6200232B702046A8
:10093C0070BD6FF01500CCE700ED00E0134B9A6A28
:10094C0012F0007F9A6A14BF1E201D2012F0807FC7
:10095C009A6A18BF1F2012F4002F9A6A18BF212020
:10096C0012F4802F9A6A18BF222012F4003F9A6A60
:10097C0018BF232012F4803F9A6A6FEA02426FEA92
:10098C0012429A6218BF2420704700BF00ED00E0AD
:10099C0010B5194B0246986A9C6A10F4805F14BF1C
:1009AC001720162014F4006F9C6A18BF1820A40599
:1009BC0009D5986B986A000404D51AB19A6A22F486
:1009CC0000429A6219200C4B9A6A12F4806F9A6A50
:1009DC0018BF1A20D2050CD49B6A13F4005F18BF01
:1009EC001C20054A936A43F47F43936200230B70E7
:1009FC0010BD1B20F5E700BF00ED00E0F0B5484B43
:100A0C005B688BB00446C3F30803002585F311889B
:100A1C00BFF36F8F02F07F40B0F17F4F11D102F026
:100A2C000C0008280DD010074CBF0C4601250022E5
:100A3C00033B8DF80720032B05D8DFE803F0246374
:100A4C0067602C46F3E700239DF80720CAB902AE75
:100A5C0004F1200720686168324603C20834BC42A6
:100A6C001646F7D1099A002D54D0C2F3080121B9CA
:100A7C006FEA52226FEA4222099202A9184604F048
:100A8C0060F80BB0F0BD264BDA6A9107DBD4DA6A5A
:100A9C00002AD8DBDA6A5200D5D55A69A16942F42A
:100AAC0080725A61BFF34F8FBFF36F8F5A6931F861
:100ABC00021C22F480725A61BFF34F8FBFF36F8F09
:100ACC004DF6027291420AD09A6AD2B24AB10DF135
:100ADC00070201212046FFF7E1FE0346B4E7236835
:100AEC00B2E79A6A12F47F4F05D00DF1070101208D
:100AFC00FFF74EFFF1E79B6AB3F5803FA3D3FFF7F7
:100B0C001DFFEAE70DF107020021E3E70DF10701F4
:100B1C000020EDE722F4FF7222F00102ACE700BFE7
:100B2C0000ED00E0024A536943F010035361704733
:100B3C0000ED00E0EFF30880EFF3098101B5724698
:100B4C00FFF75CFF01BD00BF002080F31488BFF3EA
:100B5C006F8F00F0E5FA00200D490860BFF34F8F4E
:100B6C000C4880F3088800F03DF8202080F31188B1
:100B7C0009484FF40461401880F30988EFF314809E
:100B8C000221084380F31488BFF36F8F00F000F943
:100B9C0094ED00E00012002040040020BFF34F8FC2
:100BAC000549064BCA6802F4E0621343CB60BFF3FD
:100BBC004F8F00BFFDE700BF00ED00E00400FA0519
:100BCC000749D1F890200023C2F30722184693421C
:100BDC0000DB7047C1F89830C1F8A0000133F6E78C
:100BEC0000ED00E008B572B6002383F31388FFF71D
:100BFC00E7FF144B4FF0FF32C3F88020C3F884207A
:100C0C00C3F88820C3F88C20C3F89020C3F8942034
:100C1C00C3F89820C3F89C20C3F88021C3F8842122
:100C2C00C3F88821C3F88C21C3F89021C3F8942110
:100C3C00C3F89821C3F89C2162B6BFF34F8FBFF362
:100C4C006F8F08BD00E100E0084B9B6883420BD11D
:100C5C00EFF3058343B1064B5A6842F080525A6059
:100C6C005A6A22F400425A6204F0B3BAD403002048
:100C7C0000ED00E0094A93686FF00A019967084992
:100C8C0058674B6843F080534B60002383F3118803
:100C9C00BFF36F8F9368986F704700BFD403002029
:100CAC0000ED00E015498A684FF030001044EFF376
:100CBC00098C80E8F01F202080F31288BFF36F8F1F
:100CCC000F4F4FF000664A698A603E604FF0700427
:100CDC00141920680B4C2060506F0023536780F36D
:100CEC00118804B5104600F009F9BDE8044002F182
:100CFC00300090E8F01F8CF309887047D403002073
:100D0C0004ED00E0D40200201EF0040F0CBFEFF342
:100D1C000880EFF30980816911F8021C0229FFD0C9
:100D2C0001B503F010FF01BD40B2002807DB044AF7
:100D3C004109012300F01F00834042F82130704725
:100D4C0000E100E0054B420900F01F0053F822209F
:100D5C00012303FA00F01040704700BF00E100E0EF
:100D6C0040B20028A8BF00F1604001F10101B8BFFA
:100D7C00064B4FEA4111ACBF00F5614000F00F008B
:100D8C00C9B2B4BF195480F80013704714ED00E0D9
:100D9C000B4A08B50B4B22F07F029A60BFF34F8FC2
:100DAC00BFF36F8FD3F8882022F47002C3F8882029
:100DBC0002F068F903F076F800F074F802F0B4F978
:100DCC000000000000ED00E042F8203C009B42F8DF
:100DDC001C3C0A49019B42F8183C029B42F8143C0B
:100DEC0021F001014FF0807342F8043C42F8081CDA
:100DFC000023203A02654367704700BFCD05000011
:100E0C00094A0346906870B113F1160F006E05D0B5
:100E1C00A0F140029A4205D8834203D2814228BFF6
:100E2C000020704700207047D403002008B51446FA
:100E3C000A4A0B4B9060026F1A600D4600F05EF888
:100E4C00204685F30988002163B681F31188BFF32E
:100E5C006F8F00220023FFF7B3FB00BFD4030020E9
:100E6C00D4020020014910220A60704710ED00E006
:100E7C0072B6404080F31188BFF36F8FBFF34F8F72
:100E8C0030BF62B6BFF36F8F704700BF72B6494078
:100E9C0081F31188BFF34F8F20BF80F3118862B6A6
:100EAC00704700BF044800232021C2180133272BB0
:100EBC0082F80013F9D1704700E100E001B5EFF3BF
:100ECC000580A0F110004FEAC0000449014409C993
:100EDC009847BDE8014002490847000088540000CB
:100EEC008D080000024B034A0348012100F040B872
:100EFC00000001200000002058560000026E054B37
:100F0C00403A1A60044A4021C3E9011218460121F3
:100F1C0000F038B8D802002000000B15084AC2F8BF
:100F2C0098000B6823F01F03034343F01003C2F82F
:100F3C009C308B6843F00103C2F8A030704700BFAF
:100F4C0000ED00E0044B0522C3F89420BFF34F8F53
:100F5C00BFF36F8F704700BF00ED00E0BFF35F8FF2
:100F6C00024B0022C3F89420704700BF00ED00E054
:100F7C0010B5034C0123227803F004FE207010BD41
:100F8C002E04002008B5094A0023127803F0FAFD5C
:100F9C0010F1160F03D0064B0022072800DD08BD08
:100FAC00C3F89800C3F8A0200130F6E72E04002007
:100FBC0000ED00E0F0B5454D2C68082C85B000F232
:100FCC008280FFF7CBFF00200C2684420DD1404DD0
:100FDC00404F2C706846FFF71BFC00240646A642C7
:100FEC000AD1FFF7AFFF00201CE0696806FB001177
:100FFC00FFF794FF0130E8E7009800EB04114FEA8B
:10100C00041CCB683B40B3F5000F4AD00CD8B3F5A9
:10101C00001F30D0B3F5800F38D0B3F5801F12D03D
:10102C006FF0150005B0F0BDB3F1807F42D0B3F185
:10103C00007FF5D150F80C3088684A6803F092FDB7
:10104C0040F4802009E050F80C3088684A6803F0BE
:10105C0089FD40F0885040F4302003902878072810
:10106C00CDE90123DCD801A9FFF758FF2B78013318
:10107C002B700134B3E750F80C3088684A6803F0E1
:10108C0071FD40F0885040F40020E6E750F80C3039
:10109C0088684A6803F066FD40F0E06040F4003078
:1010AC00DBE750F80C3088684A6803F05BFD40F0D1
:1010BC008270D2E750F80C3088684A6803F052FD11
:1010CC0040F08870C9E74FF0FF30ABE76456000082
:1010DC002E0400200000F0FF08B50649064821F058
:1010EC000701C1F1005202F5803203F0EEFB002043
:1010FC0008BD00BFC7170020E4020020024B0122EC
:10110C00C3F840250020704700E0014020B1034B9C
:10111C00800143F001031847704700BF40560000A0
:10112C0001F018B9084B70B5C31A0D4607499B104E
:10113C00044659430648402203F06EFD2B460146F7
:10114C002046BDE87040184704030020B76DDBB69D
:10115C003854000073B50C4C0C4A4023041B00930C
:10116C000D460B460A49A41061430646094803F094
:10117C0080FD011E05DA30462B4602B0BDE87040FA
:10118C00184702B070BD00BF04030020EB4C0000F8
:10119C00B76DDBB638540000002270B5012104464F
:1011AC001046FFF7DDFD114801F0B6FA104B9842DE
:1011BC0018D1206900F0C8F901F0C0FA26690D4970
:1011CC00304603F00FFC00280BDB01253564246945
:1011DC00084904F11C0003F005FC002801DBE56460
:1011EC00002070BD6FF00400FBE700BF3912000057
:1011FC000000AD0B8456000070B501460C23094865
:10120C004B43C418D4E90E56403300221844A26351
:10121C0003F0EFFC2DB132462B460348BDE870407D
:10122C00184770BD0403002038540000012810B585
:10123C0004460AD004280CD078B9084B1B6C5B0709
:10124C000BD1BDE81040FFF7D7BF00F08BF920465B
:10125C00F7E7BDE8104000F093B910BD040300207F
:10126C0008B54FF02003EFF3118183F31288BFF31D
:10127C006F8F124A136843F002001060DA0708D42B
:10128C0081F31188BFF36F8F0120BDE8084001F096
:10129C0067BA4FF08043D3F80C24D3F80C34DB0737
:1012AC00EED5074803F0A5FC81F31188BFF36F8FCF
:1012BC000020BDE80840FFF79FBF00BF540300208B
:1012CC00440300201FB500220123CDE90223094A63
:1012DC00CDF800D06B46CDF804D003F0F9FC002813
:1012EC0005DB4FF480420023684602F06DF905B02F
:1012FC005DF804FBFD4C000010B5074C23782BB9AE
:10130C004FF4A57003F002FE01232370BDE81040DA
:10131C00002001F025BA00BF2F04002010B54FF0BB
:10132C002003EFF3118483F31288BFF36F8F074A06
:10133C00136823F00201DB07116002D4012003F0D3
:10134C006FFD84F31188BFF36F8F10BD5403002021
:10135C00024AC3B21C2003FB002070470403002088
:10136C00F8B52849BFF35B8F0646012251E8003FD0
:10137C0041E800200028F9D1BFF35B8F33B9224933
:10138C0022484B60CB608A6003F03FFB731E012B3D
:10139C001DD803F0CFFD0446D0B91D4B1B78BBB153
:1013AC004FF080430222C3F8082305464FF08047D4
:1013BC00D7F81824D7F81834D20313D59B0701D0CB
:1013CC00012E0FD1C4B185F31188BFF36F8FF8BD17
:1013DC004FF02003EFF3118583F31288BFF36F8F67
:1013EC000124E3E71CB12846FFF750FDE0E700219C
:1013FC00212002F025FDDBE74FF080430222C3F8E9
:10140C000423E4E700030020F00200202003002066
:10141C00330400200D4BBFF35B8F012253E8001FF8
:10142C00002903D143E800200028F7D1BFF35B8FDC
:10143C000AD107490023CB60064B4B6003238B601A
:10144C00054B186803F0E1BA704700BF7403002025
:10145C005C030020291500005803002007B500226A
:10146C000023CDE9002308484FF40032002302F09A
:10147C00E5FE064B186803F020FB054B00221A60B2
:10148C0003B05DF804FB00BF90000020580300205F
:10149C0074030020F7B51C4E1C4CB7681C4DFB6840
:1014AC003A213046984740B1002323702B8001F03D
:1014BC00C9F90123237003B0F0BD0C213B696A46C6
:1014CC00304698470028EFD1124A019B93FBF2F368
:1014DC00009A217803EB82031BB2B5F90020002996
:1014EC00E4D09A1A002AB8BF524212B2012ADDDCAB
:1014FC00094A1368013901332170136003B0BDE848
:10150C00F040FFF7ABBF00BF745400003004002064
:10151C000C04002090D003006C03002008B5074891
:10152C0003F0F9FC28B901F08DF9054B01221A7072
:10153C0008BDBDE80840034802F064B974540000CB
:10154C003004002004000020034B044A18600023E0
:10155C001360034A13607047580300207003002087
:10156C006C030020024B00221A70FFF753BF00BF20
:10157C0030040020014803F08CBE00BF9000002016
:10158C00024A136801331360FFF768BF7003002031
:10159C0038B545682B69B3B11035284601F014FCF9
:1015AC00044680B90146284601F0D6FB084B984208
:1015BC000BD108492246284601F0B6FB22460521EC
:1015CC000620FFF7CDFB002038BD6FF00400FBE7D1
:1015DC000000AD0BE5150000430970B507D10B4BAE
:1015EC00596821B101250C68094E854001B970BDBF
:1015FC008A682A4002D04B68304698471CB1236851
:10160C0021461C46F2E72346FAE700BF7803002088
:10161C004C5400002DE9F043476840F20636D006E2
:10162C003B7B87B002EA060654BFC2F3401003208E
:10163C0001F01F05B6F5837F144645EA43158DF876
:10164C00030042D00FD8062E18D007D8B6B1022E00
:10165C003DD06FF0150007B0BDE8F083B6F5807F84
:10166C00F7D101260AE040F20222964231D0B6F5BB
:10167C00407F30D0B6F5007FEBD1022622032CD56B
:10168C007A6801238B40C2F808353B696BBB05F0C7
:10169C001F026D0976D1920002F1A04284F48031D0
:1016AC00D2F80037C1F30041C4F3404423F4E163A2
:1016BC0044EA410423F007031C4344EA800444EA4F
:1016CC000624C2F800470020C5E70726D6E7042603
:1016DC00D4E70526D2E70326D0E7630341BF0123F5
:1016EC007A688B40C2F80C35CFE710370DF1020247
:1016FC002946384601F01EFB14F4403F80460CD1BD
:10170C002946384603F0FEFB214B9845DBD19DF86A
:10171C000210384601F062FBD5E701AB4FF000092F
:10172C0003AA29463846CDE90439CDE90199CDF80B
:10173C000C9001F0D3F9164B98428AD114F4003373
:10174C0015D09DF803308DF80E3084F48034C4F33A
:10175C0000444B4603AA294638468DF80C608DF898
:10176C000D4001F06BFA0A4B9842CDD071E7CDE9F0
:10177C00043303AA0DF1030329463846039301F001
:10178C00ADF9F0E702F5E07253F82230FFDE00BF4E
:10179C000000AD0BF0B54068057B01F01F0444EA76
:1017AC004514056987B0002D60D0B2F5001F00F11B
:1017BC00100506D12146284603F0A6FB002007B0F1
:1017CC00F0BD01AE0027B2F5800F0197776038D1DC
:1017DC00B3F1007F14BF052304238DF804300023DC
:1017EC00CDE904630393836823FA01F111F001013D
:1017FC0019D1B2F1A07F16D104F01F03620903F5D1
:10180C00E07339D14FF0A04252F82330DB070AD4F1
:10181C000DF1030632462146284601F08BFA184B8F
:10182C00984219D0029603AA2146284601F056F98F
:10183C00144B98421DD101222146284601F0DAFAB8
:10184C00BCE7B3F1C06F05D0B3F1007F14BF012327
:10185C000223C2E70323C0E73146284601F0C4FA4D
:10186C00084B9842DED06FF00B00A8E76FF08500B4
:10187C00A5E76FF01500A2E751F82330FFDE00BF9B
:10188C000400AD0B0000AD0B2DE9F047DFF8E0C014
:10189C00384F0026F3B2994202D80020BDE8F087F9
:1018AC0050F8265015F4805FC5F3432405F07F03F0
:1018BC004DD17F2B4FEA15453C5D08BF4FF0FF33F0
:1018CC00032D47D8DFE805F002083235C2F80C3595
:1018DC005D1C31D10136DDE7C2F814355D1CF9D041
:1018EC004FF0000850F8269009F40055002D16BF53
:1018FC004FF00008C6464FF0010E03F01F055B09C0
:10190C002FD1AD0005F1A045C9F3C119D5F800A739
:10191C00230243EA89030AEA0C0A43EA0A0343EA6C
:10192C00080343EA4E03C5F80037D3E7C2F808357D
:10193C00CEE7C2F81035D1E75D090ED14FF00108A2
:10194C004FF0A04508FA03FEC5F808E5CAE76FF0AA
:10195C001500A3E76FF08500A0E70023C3F8083556
:10196C00FFDE05F5E075002353F82530F8E700BFDE
:10197C00F0F8FCFFBC570000014B01221A607047C5
:10198C0000C000400C2903690BD15B6A064907486B
:10199C004B4393FBF0F100FB1133116053600020BB
:1019AC0070476FF08500704790D0030040420F00E5
:1019BC00044B00690022C3F80021D3F8003101F078
:1019CC00DFBD00BF00C000407FB50569AB6A63B3E3
:1019DC003A2901D00C292BD105F110064FF0FF321A
:1019EC004FF0FF33304601F051FD134B0193A86AC1
:1019FC000323002469460394029303F006F84FF086
:101A0C00FF324FF0FF33284601F0DEFDA86A03F0E9
:101A1C0054F80A4BD3F808256A6201225A60304602
:101A2C0001F0F8FC204604B070BD6FF00A00FAE734
:101A3C006FF08500F7E700BF8519000000C000407B
:101A4C0010B504690020FFF783FCA0624FF0FF3251
:101A5C000021204603F094FA04F1100003F089FAF7
:101A6C00002201210C20FFF77BF90C20FFF75CF919
:101A7C00024B0122C3F80423002010BD00C000401B
:101A8C00054BD3F81C312BB9044B1878003818BF10
:101A9C0001207047012070470020004032040020D4
:101AAC00074BD3F8082142B10020C3F80801D3F842
:101ABC000821D3F818350B7070474FF0FF30704782
:101ACC0000200040024BD3F88004C3F88004704718
:101ADC000020004070B50023084C1E46D8B282424C
:101AEC0003DDD4F80851013305B970BDC4F80861A1
:101AFC00D4F80851D4F818550D54EFE700200040E5
:101B0C000E4B00221A700E4B01229A608022C3F8F1
:101B1C0004234FF02002EFF3118382F31288BFF3FA
:101B2C006F8F084A12781AB1074A0421C2F80011C3
:101B3C0083F31188BFF36F8F704700BF310400200F
:101B4C00002000403204002000E100E0014B0122A3
:101B5C001A70704731040020024B0422C3F804238E
:101B6C00704700BF00200040024B0422C3F808233A
:101B7C00704700BF0020004008B5074BD3F80403A2
:101B8C0010F0800004D0054B1B7813B9FFF778FFD9
:101B9C0008BD0020FCE700BF0020004031040020FD
:101BAC00034BD3F80801003818BF0120704700BF61
:101BBC0000200040024B4FF40072C3F8042370471E
:101BCC0000200040024B4FF40072C3F8082370470A
:101BDC000020004008B50B4AD2F804331B0605D48C
:101BEC00D2F8040310F0040006D108BDFFF7C4FFBF
:101BFC000028F5D00120F8E7D2F80801003818BF0A
:101C0C000120F2E700200040024B1960024B1A60E1
:101C1C00704700BFB8030020B40300200E4A0F4BDE
:101C2C00117851B1D3F81C1139B18021C3F80813C4
:101C3C000121D960002313707047D3F8242122B1FD
:101C4C000022C3F82421D3F82431054B1B6813B1AF
:101C5C00044A1168184770473104002000200040E6
:101C6C00B8030020B4030020F8B50E4603F062F967
:101C7C001B4D90BB64240127BFF35B8F55E8003FDD
:101C8C00002B03D145E80072002AF7D1BFF35B8F1C
:101C9C0007D021200021013C02F0D2F814F0FF04FF
:101CAC00EAD1104B0022C3F81C21D3F81C110E49A9
:101CBC000A7001229A604FF47A74C3F81C65FFF71E
:101CCC00DFFE20B9012003F0A9F8013CF7D1054B48
:101CDC000122DA6000232B60F8BD01232B60E0E7C2
:101CEC00B0030020002000403204002073B55F4A8E
:101CFC00436804690021C2F800151E68054601AA54
:101D0C00304603F057F80028C0F28C80019B3268F3
:101D1C0019791868FFF7B8FD0028C0F28380637941
:101D2C00012B1CD1A379032B19D1E379BBB92179F0
:101D3C0011B1022913D10E212368B3F5164F73D0BC
:101D4C002BD8B3F5165F71D014D8B3F5966F6FD04E
:101D5C0008D8B3F5967F6ED0B3F5167F6ED06FF0C2
:101D6C0085005FE0B3F5166F6BD0B3F5965FF6D1D7
:101D7C003F4B39E0B3F5E14F66D007D8B3F5615F5F
:101D8C0064D0B3F5964FEAD13A4B2DE047F61222C8
:101D9C009342E4D14FF4000326E0B3F5613F58D0F1
:101DAC0011D8B3F5963F56D008D84DF6C0229342C1
:101DBC0053D0B3F5614FD2D12F4B15E0B3F5E13FC2
:101DCC00CDD12E4B10E0B3F5612F49D007D82C4A5A
:101DDC00934247D0B3F5E12FC1D12A4B04E02A4AF4
:101DEC009342BCD14FF08053204A2D69C2F8243560
:101DFC00C2F86C1594E8030085E803000024042362
:101E0C00C2F80035C2F80841D2F808311F4B012145
:101E1C001160022022461970FEF7A2FF0220FEF785
:101E2C0083FF204602B070BD194BDDE7194BDBE791
:101E3C004FF49E23D8E74FF4A033D5E74FF41C336F
:101E4C00D2E74FF41D23CFE7134BCDE74FF46C13C0
:101E5C00CAE7124BC8E7124BC6E74FF46503C3E75A
:101E6C00104BC1E74FF08063BEE700BF002000407D
:101E7C0000B0130000A04E0000F0EB0000E0D70112
:101E8C0090D0030000705F0740420F003204002026
:101E9C0000509D000050270000F0750000B0AF030B
:101EAC0000903A0100D0BE0E2DE9F04100240C4EFA
:101EBC00DFF830802746E5B2AA4203DDFFF7E0FDEC
:101ECC00013410B92846BDE8F081C6F81C71D6F86B
:101EDC001C314B5D88F80070C6F81C35EBE700BF71
:101EEC00002000403204002070B5012383400E4ACC
:101EFC00BFF35B8FDC4352E8001F01EA040542E8A4
:101F0C000056002EF7D1BFF35B8F4FF48032824026
:101F1C000648C0F80823BFF35F8FBFF36F8F0B42E7
:101F2C0014BF0120002070BDC00300200010014030
:101F3C0070B40E49D1E90034D01AC31844F100042E
:101F4C0022F07F46C1E90034A6F50013B3F5400F2B
:101F5C0009D2074B1B681A0A1B069C19054B42F148
:101F6C000005C3E9004570BC02F072B80001002006
:101F7C00C40300200801002011B3BFF35B8F0123C1
:101F8C00104A834052E800CF4CEA030C42E800C1EF
:101F9C000029F7D1BFF35B8F0B4A4FF4803383409A
:101FAC00C2F80433094BBFF35B8F1B68BFF35B8F25
:101FBC00C340DB0742BF064B4FF40032C3F800218D
:101FCC00704700BFC003002000100140BC0300207C
:101FDC0000E100E00D4B1868010A0006BFF35F8FAB
:101FEC000B4BD3F80435181841F10001B3F5801FE1
:101FFC000AD2084BD3E90023904271EB030303D2BE
:10200C0010F1807041F10001704700BFC403002043
:10201C0000100140080100202DE9F04F85B0164654
:10202C001F469DF840A00446FFF75EFF0190FFF7A6
:10203C00D1FFB04271EB070354D23E4B301A67EB21
:10204C000101984271F100014FD23B4B03EB041399
:10205C00D3E902239F4208BF96425ED037494FF422
:10206C00803804F1500508FA04F8AD00C1F8488333
:10207C002046ADB202F0B3FE26F07F4B05F1804551
:10208C0004F5A87305F58835DC464FF00309029377
:10209C00029A2CF07F4341F82230C1F84483D1F8E6
:1020AC000435274A6FF00200C01A604420F07F40CC
:1020BC00904232D9286868B1D1F804350393A3EB68
:1020CC000B0020F07F40B0F5000F26D9204602F01F
:1020DC0086FE039BBAF1000F07D109EB030C09F143
:1020EC000109D5E7BAF1000F09D06FF015052046AC
:1020FC000199FFF741FF284605B0BDE8F08F012399
:10210C00104ABFF35B8FA34052E8000F184342E81C
:10211C0000010029F8D1BFF35B8F07490E9823010A
:10212C0001EB0412C8500F9B5360C2E902670025F3
:10213C00DDE700BF01008000F0000020001001402E
:10214C00FDFF7F00BC0300207FB51C4C1C4BC4F86A
:10215C000833C4F848331B4B00254FF0FF304FF0C9
:10216C00FF31C4F80855C3E902014FF48033C4F8B9
:10217C000433154B02264FF400320121C4F80463DA
:10218C001120C3F880212A46FEF7EAFD1120FEF744
:10219C00CBFD0E4A0123A360236013600C4B0D4A48
:1021AC000093CDE9015500232846FFF735FF304653
:1021BC00FFF7D6F8284604B070BD00BF00100140F0
:1021CC0003000F00F000002000E100E0C00300203D
:1021DC003D1F0000FFFF7F002DE9F7432F4CD4F883
:1021EC00043399070BD5D4F8043143B12C4A00239E
:1021FC00C4F80431D4F80431136801331360D4F8F3
:10220C000433DA032AD5BFF35B8F264B53E8002F38
:10221C0022F0010143E800100028F7D1BFF35B8FD7
:10222C00D30702D4D4F84031C3B10025C4F84051CF
:10223C00D4F84031FFF7CEFE4FF02003EFF31182BC
:10224C0083F31288BFF36F8F174BD3E90267B04249
:10225C00B94106D282F31188BFF36F8F03B0BDE88A
:10226C00F0834FF0FF384FF0FF39C3E90289D3E90F
:10227C0000101D604FF48033C4F84833C4F840514B
:10228C00D4F8403182F31188BFF36F8F0029E5D069
:10229C00009032463B4628468847DFE70010014055
:1022AC00C4030020BC030020F000002030B5431C08
:1022BC00124C85B005D08442A8BF0446012CB8BF8F
:1022CC000124FFF787FE0E4B0C4DD3E90013401A87
:1022DC00B0F5000F10D22218AA4228BF2A46521875
:1022EC004FF0000007490091CDE9010043F10003D4
:1022FC00FFF792FE05B030BD2A46F0E7FFFF7F00E6
:10230C00000100203D1F000008B5FFF763FE024BE3
:10231C001B68C01A08BD00BF000100204FF07043BD
:10232C0093F8E02F062A09D1D3F8E83FC3F303133F
:10233C00033B042B02D8024AD05C70470020704744
:10234C00EF570000024AD2F80034002BFBD0704744
:10235C0000E0014010B502F052FD40B14FF0805347
:10236C008E4AD3F82433C3F30423C2F84035FFF765
:10237C00D5FF10B18A4B8B4A5A6702F040FD48B129
:10238C004FF080534FF08042D3F84432C3F34233C2
:10239C00C2F83C35FFF7C2FF30B1834AD2F8FC30AB
:1023AC0023F08073C2F8FC3002F029FD40B14FF0ED
:1023BC0080430022C3F80C21C3F81021C3F8382540
:1023CC00FFF7ACFF20B14FF080430322C3F8A025E8
:1023DC00FFF7A4FF60B1754B0522C3F8102601224C
:1023EC00C3F888260022C3F818263F22C3F8142607
:1023FC004FF08053D3F83021511C09BF4FF070437C
:10240C00D3F8343193F8E02FD3F8E83F08BFC3F387
:10241C000313062A4DD1033B042B03D8644AD35C27
:10242C00002B46D04FF08052624BD2F80414C3F804
:10243C002015D2F80814C3F82415D2F80C14C3F8DC
:10244C002815D2F81014C3F82C15D2F81414C3F8AC
:10245C003015D2F81814C3F83415D2F81C14C3F87C
:10246C004015D2F82014C3F84415D2F82414C3F83C
:10247C004815D2F82814C3F84C15D2F82C14C3F80C
:10248C005015D2F83014C3F85415D2F83414C3F8DC
:10249C006015D2F83814C3F86415D2F83C14C3F89C
:1024AC006815D2F84014C3F86C15D2F84424C3F85C
:1024BC00702502F0A4FC48B14FF080534FF08042DD
:1024CC00D3F8583203F04F03C2F8E43E02F097FC05
:1024DC0048B14FF08043D3F80024D20744BF6FF0CB
:1024EC000102C3F800244FF08053D3F83021062AA0
:1024FC0026D1D3F83431033B042B02D82E4AD35CBB
:10250C0063B12E4AD2F83C3743F48063C2F83C37AF
:10251C004FF08053D3F83031062B11D14FF080534C
:10252C00D3F83431033B042B02D8254AD35C3BB19E
:10253C004FF01023D3F808224FF08043C3F85825EE
:10254C004FF01023D3F80022002A03DBD3F8043217
:10255C00002B22DA1B4901234FF01020C1F804355F
:10256C001524FFF7EFFEC0F80042FFF7EBFEC0F8B2
:10257C000442FFF7E7FE0023C1F80435FFF7E2FE43
:10258C00BFF34F8F0849104BCA6802F4E062134343
:10259C00CB60BFF34F8F00BFFDE710BD0030014093
:1025AC0000C007400DF0ADBA00ED00E00050004057
:1025BC00EA57000000C00040E55700000010004042
:1025CC00E057000000E001400400FA0530B5046853
:1025DC00CCB1BFF35B8FB4FA84F3C3F11F03DBB24E
:1025EC0001229A4024EA020250E8005FA54204D17D
:1025FC0040E8002CBCF1000FF6D1BFF35B8FE6D1A5
:10260C0002480B7030BD0248FCE700BF0000AD0B68
:10261C000200AD0B10B50368CB40DB0714D40123CB
:10262C008B400268BFF35B8F43EA020150E8004F16
:10263C00944204D140E8001CBCF1000FF6D1BFF36A
:10264C005B8FEED1014810BD0148FCE70000AD0BDB
:10265C000400AD0BF7B5044618B1012823D003B024
:10266C00F0BD4FF080430222C3F808230122DA6048
:10267C00C3F80401D3F80431064601238DF8073062
:10268C0042F210754FF08047D4B1012CE7D1D7F846
:10269C000C3403F48033AEBB83B3012002F0BEFBD9
:1026AC00013DF4D12AE04FF080430022C3F8080327
:1026BC005860C3F80021D3F800310DF10706DCE7B0
:1026CC00D7F8183403F480333EB9002BC7D001205F
:1026DC0002F0A4FB013DF3D1C1E7D7F8182402F0B6
:1026EC0003023260002BBAD09DF80700012803D1F9
:1026FC0002F094FB013DC7D1012CB0D1054B002257
:10270C005A71ACE7D7F80C2402F001023270002B9E
:10271C00EAD1F3E7C8030020054B1A792AB99A715C
:10272C00012218609A80034870470348704700BF25
:10273C00C80300200000AD0B0C00AD0B08B5074B17
:10274C001B682BB10020FEF7FDFA08B9FEF7ECFA76
:10275C004FF080430022C3F8182508BDC8030020A1
:10276C0038B5B0B1012851D14FF080420023C2F8E6
:10277C000031D2F800212E4A03F180430121196067
:10278C002C4B1B68002B4CD04FF08043C3F8040338
:10279C003CE04FF08043D3F81814D3F81824CC0342
:1027AC0026D5900702D00020FFF754FF4FF080434E
:1027BC000022C3F81825C3F804211F4AD3F80431AA
:1027CC00D2F8FC0040F08073C2F8FC301B4B1C6844
:1027DC0044F0010119605D685968491BB1F50A5F45
:1027EC00FAD31C60C2F8FC000823154A0220C3E788
:1027FC00D3F81424D107D9D5D3F81C249207D2D1FD
:10280C000C4A12681AB10222C3F8042338BDD3F85B
:10281C000421002AFBD00022C3F80421D3F8043190
:10282C00F4E71368002BFCD0002313601368EDE76A
:10283C0000010040C803002000ED00E0001000E0A3
:10284C00040100404FF08043D3F80C14D3F80C244F
:10285C00C80325D5D10723D5D3F81824D2031FD507
:10286C00114A917901F0FF00E1B9C3F80C01D3F8DA
:10287C000C11022001219171C3F8340C19611268FA
:10288C0022B10822C3F8042308487047D3F80C215E
:10289C00002AFBD00022C3F80C21D3F80C31F3E74B
:1028AC000348704703487047C80300200000AD0B75
:1028BC000500AD0B0B00AD0B10B54FF08043D3F8FA
:1028CC0000216AB10022C3F80021D3F800210122B3
:1028DC00C3F80823184B587910B95A711B689847DC
:1028EC004FF08043D3F804215AB10022C3F80421DD
:1028FC00D3F804210222C3F808230F4B01201B68D4
:10290C0098474FF08043D3F80C21A2B1D3F804239D
:10291C00120710D50022C3F8342CC3F80C21D3F8BD
:10292C000C110821C3F80813034B9A71BDE8104031
:10293C001B680420184710BDC803002070B500F1B7
:10294C0008030C4C34F81330DA0505460E4607D54F
:10295C00C3F3432304EBC30254F833305268984753
:10296C00A3682BB1E26831462846BDE87040184791
:10297C0070BD00BF1C00002010B4C0B2114A08305A
:10298C0032F81030D9051BD5C3F3432123F4F85387
:10299C0022F8103002F10E04002034F8023F13F438
:1029AC00807F03D0C3F34323994209D00130202800
:1029BC00F3D1002342F83130034810BCFFF72ABE94
:1029CC0010BC70471C00002074000020F0B50546B8
:1029DC0000200446012607468C420BD1114BD3F83C
:1029EC007C2132B10022C3F87C21D3F87C3140F039
:1029FC000040F0BDE3B29B0003F580729B0806FA21
:102A0C0003F31D420BD002F1804202F5C042D2F812
:102A1C0000C0BCF1000F02D01760126818430134DB
:102A2C00DAE700BF00600040CBB20246083308462C
:102A3C000C4931F81330990611D599070FD4106849
:102A4C005B0B01219940C0F80813126802EB830359
:102A5C00D3F8102522F00302C3F81025704700218B
:102A6C0002F033BA1C000020F7B5CDB2174E083572
:102A7C00074636F81530DB070C4624D5FFF7D4FF94
:102A8C0036F815309A0606D55B0B3A6803F5A27337
:102A9C00002142F823102046FFF76EFF002301A807
:102AAC0026F81530019402F0BDF9019B00EB830070
:102ABC00074BD0F80027134043F00203C0F800374F
:102ACC00044803B0F0BD0448FBE700BF1C00002025
:102ADC00F0F8FCFF0000AD0B0400AD0B2DE9FF413D
:102AEC00136807460C461546FBB1CEB2DFF83C81A5
:102AFC00083638F8162002F02202222A22D00022B0
:102B0C00CDE900228DF80E208DF80F200DF10E016D
:102B1C000DF10F02204602F08FF938F8163023F031
:102B2C00020343F0010328F816306B684BB393F89B
:102B3C0000C05A683D4EE3B2083336F813108807CC
:102B4C0002D5B2B13A481FE021F02001C904C90CEA
:102B5C0026F813106AB1BCF1030FF3D86A68386811
:102B6C0052681278BCF1000F11D102F5A27240F834
:102B7C0022C036F8132022F01C0242EA8C0226F8FE
:102B8C001320AB6843BB2B4804B0BDE8F08100EBCD
:102B9C00820041EA4231D0F810E52EF0030EC0F865
:102BAC0010E53F6807EB820741F02001D7F81005CC
:102BBC0026F8131020F4473020F44070C7F81005A5
:102BCC002002D7F810E500F4F85040EA0C4040EA37
:102BDC000E00C7F81005CCE7D3E900672046FFF7D5
:102BEC00CBFE002ECFD0114DD5E90023964203D158
:102BFC009F4201D1002209E00F480DF10F01FFF7B0
:102C0C00E5FC0C4B9842BFD19DF80F2045F8326083
:102C1C00E4B205EBC20308345F6035F8143043EAC4
:102C2C00422343F4807325F81430ACE71C000020D9
:102C3C000400AD0B0000AD0B740000202DE9FF412A
:102C4C0007460C461E4612B3CDB2DFF8D0800835CD
:102C5C0038F81530980701D4990621D413F01C0FBD
:102C6C0002D05378012B1BD001238DF80F30002399
:102C7C00CDE900230DF10F01931C2046013202F027
:102C8C00DBF838F8153043F0030328F81530002E24
:102C9C0042D0E1B2214D083135F81120930703D40D
:102CAC001F4804B0BDE8F08196F800E0D7F800C0EA
:102CBC0022F020020EF5A270D2040023D20C4CF8A4
:102CCC00203025F8112096F801C0BCF1000F23D05C
:102CDC003868B67800EB8E004FEA0C4CD0F8103503
:102CEC0023F4981323F4F853C0F81035230203F49B
:102CFC00F8530CF4403C3605D0F8107543EA0C033D
:102D0C0006F4801642EA4E32334342F020023B4333
:102D1C0025F81120C0F810350248C2E71C0000202D
:102D2C000400AD0B0000AD0B014BC3E90212704760
:102D3C001C000020C9B20831044B33F8113099063D
:102D4C0043BF5B0B02481370024870471C00002005
:102D5C000000AD0B0400AD0B70B5184E96F860403A
:102D6C0005464CBB2146402206F1100002F0C4FA85
:102D7C002D68306D2146884212D10023C5F87C3174
:102D8C0045F30730D5F87C31FDF7CEFF4FF000430B
:102D9C00C5F804330A48012386F86030B36570BD6A
:102DAC00CBB29B0003F580727C2B08BFAC5001F1B9
:102DBC00010108BFAB58DEE70248F0E71C00002019
:102DCC000000AD0B0C00AD0B034B93F8600000380A
:102DDC0018BF0120704700BF1C0000200148FFF7FE
:102DEC0019BC00BF700000200148FFF7EFBB00BF0B
:102DFC007000002073B5CBB20C4608331D4931F876
:102E0C00133099061AD513F0020617D15B0B9C00F0
:102E1C00056804F580716E50695801682144D1F839
:102E2C00104544F00104C1F810452AB10168012293
:102E3C0002FA03F3C1F8043302B070BDC3F382038A
:102E4C00042B12D0052B12D001A8019401F0EAFF3B
:102E5C00019AD0F81035D34003F00103991C204699
:102E6C0002B0BDE8704002F030B80321F7E7022150
:102E7C00F5E700BF1C0000202DE9F347544B554FDC
:102E8C00D3F80403396DC0B240F00040FFF79EFD4B
:102E9C00051E18DA0023F96D0093684602F024F839
:102EAC004FF0010897F85C30DA075AD4396D4FF0BF
:102EBC000040FFF78BFDF96D684602F015F800280D
:102ECC00F0D125F000450124002D69D102B0BDE8F8
:102EDC00F08794FAA4F4B4FA84F4E00804F108033B
:102EEC0004F0070237F813901DF80030019408FA2B
:102EFC0002F223EA02030DF8003001A801F092FF60
:102F0C00019B03F5E0734FEA990150F82360C9F374
:102F1C00820A4B07D146C6F3014626D520465146B8
:102F2C00FFF70CFD01A8019401F07CFF019B03F558
:102F3C00E073F6B250F82330C3F301439E4207D13D
:102F4C000021204601F0C1FF3146204601F0BDFFB3
:102F5C0001A8019401F066FF019B08FA03F3C0F885
:102F6C002035009C002CB4D1A0E7022E0CD10321FB
:102F7C00204601F0AAFF0AF00503012BE8D14946CF
:102F8C002046FFF7DBFCE3E70221204601F09DFF22
:102F9C00BAF1030FF3D0032EDAD1BAF1020FEDE739
:102FAC0095FAA5F3B3FA83F304FA03F29B0003F149
:102FBC00804303F5C04325EA0205D3F81005D3F886
:102FCC001015C0F30420C1F30141FFF7B7FC7BE7F8
:102FDC00006000401C00002038B54FF02003EFF3D8
:102FEC00118583F31288BFF36F8F064B9C6801F039
:102FFC0002FF85F31188BFF36F8F2046BDE8384080
:10300C00FDF722BED4030020104B70B553F82040BE
:10301C00013053F82060A64200D870BDD4E90035C9
:10302C0095B153B12846984738B10028B8BF4042F3
:10303C00EB68FF28A8BFFF201870EA68537843F0AC
:10304C00010353700834E6E79847FBE77857000014
:10305C0008B50A4B012203201A70FFF7D5FF01F0C7
:10306C0027F90420FFF7D0FF00F038F9FDF746FAF6
:10307C00034A137B23F00103137308BD33040020B0
:10308C009001002008B50348034A0021121A01F0F0
:10309C004DFF08BDF00000203804002070B500235F
:1030AC0086B00122CDE90423194E1A4D01930F224B
:1030BC00CDE902321849142303FB005506EBC01668
:1030CC0004464FF4C070154B00954FF4A07200FBF2
:1030DC000411304600F096F8737B114AEE6023F031
:1030EC00040373734FF4046304FB033313446B60E6
:1030FC000C4B2C74BFF35B8F53E8001F013143E87A
:10310C000012002AF8D1BFF35B8F06B070BD00BF70
:10311C0010010020D4030020800C0020574F000029
:10312C0040040020D003002080B50020A6B0FFF79B
:10313C006BFF2D4B83F308882C4D2D4E6B692D4F57
:10314C0043F400736B610024E02385F82230EC77A4
:10315C002C766C76AC7685F820406B6A43F4E023D1
:10316C006B6285F82340FDF7DDFCFDF77BFE4FF02D
:10317C00FF33AB62EB62FDF71DFFFDF7B3FE40F2D0
:10318C000113ADF8243006ABB360CDE91E44219495
:10319C0001F0C0FE0120FFF737FF0220164DFFF7AC
:1031AC0033FF00F0C3FD154B7561059301231449E2
:1031BC000094CDE903434FF480623B46CDE90144D2
:1031CC00284600F01FF86A7B064622F004022846C7
:1031DC006A7301F052FF2046FFF760FF3A46314612
:1031EC002846FDF723FE00BF800C002000ED00E018
:1031FC00D40300205D30000090010020F457000043
:10320C00000E00202DE9F04385B00732994600F1FD
:10321C00580322F00706C0E91633109B037306F11E
:10322C0040050423002743730D440F9B837388468A
:10323C00C0E9067729468760C7730446FDF7F2FAA2
:10324C0008F140030730C4E9183620F007000E9B44
:10325C00A06602930D9B01932D1A0C9B00932A469A
:10326C004B4641462046FDF7AFFD054B67659B6815
:10327C0003B1DB6EE366284605B0BDE8F08300BF02
:10328C00D4030020F0B587B000250595109D04955A
:10329C000F9D03950E9D0295DDE912760D9D01950E
:1032AC000C9D00950446FFF7ADFFB6F1FF3F08BF3C
:1032BC00B7F1FF3F05D056EA070305D1204600F0D1
:1032CC00E7FC204607B0F0BD03493A46334604F10B
:1032DC00180000F047FEF4E74551000070B5224C91
:1032EC00224D86B02646AE4204F130040AD300F0DB
:1032FC00EDFC1D4C1E4EAC4220D306B0BDE8704018
:10330C0000F0F8BC54F80C3C059354F8103C0493B2
:10331C0054F8143C039354F8183C029354F81C3C96
:10332C00019354F8203C009354E90A2354E90C010E
:10333C00FFF768FF54F8303C5E65D3E7D4E90A2305
:10334C00B3F1FF3F08BFB2F1FF3F05D052EA0301D2
:10335C00206803D100F09CFC3034CCE731461830A7
:10336C0000F000FEF8E700BFC0550000C05500009B
:10337C00455100002DE9F34104460E4600F10808C2
:10338C004FF02001EFF3118781F31288BFF36F8F99
:10339C00056AC1688D422AD201F0E9FEA268054691
:1033AC00314678B10024406901F098FF2846AC679B
:1033BC0001F063FE4046394600F058FC204602B04E
:1033CC00BDE8F081E06901F089FFE369A26813446C
:1033DC006269E361934204BF2369E361236A0133A9
:1033EC002362002087F31188BFF36F8FE7E752EA5F
:1033FC0003010AD0064989684E61CDE9002339469C
:10340C000246404600F0CEFBD9E76FF02200E9E718
:10341C00D403002038B5836804466BB3194A92680C
:10342C0093422CD1C368012B03D9013BC36000200C
:10343C0038BD4FF02003EFF3118583F31288BFF3EF
:10344C006F8F0169806801F08CFD204601F08FFEC2
:10345C00A06058B190F90E2022610022826701F021
:10346C000CFE0948294600F001FCE0E7E06085F31A
:10347C001188BFF36F8FDAE76FF01500D8E74FF0C4
:10348C00FF30D5E7D4030020340400202DE9F341AC
:10349C00044617461E464FF02003EFF3118883F3C2
:1034AC001288BFF36F8FC368334A7BB18068916811
:1034BC00884219D057EA060318D188F31188BFF354
:1034CC006F8F6FF00F0002B0BDE8F081916891F939
:1034DC000E1021610133E3609368A36088F31188B7
:1034EC00BFF36F8F0020EEE72169F2E791F90E1020
:1034FC0090F90E309942A8BF19466FF07E029142A6
:10350C00B8BF11468B422EDD01F02BFD0546CDE9EF
:10351C0000761A482246414600F044FB0028E1D0D0
:10352C004FF02003EFF3118683F31288BFF36F8FF4
:10353C00A068D0B1236821699C420AD04BB193F9A1
:10354C000E309942A8BF19466FF07E039942B8BF5E
:10355C00194601F006FD40B10848314600F086FBE3
:10356C006FF00A00AFE70025D1E7002DF4D186F308
:10357C001188BFF36F8FF3E7D403002034040020CD
:10358C0038B504464FF02003EFF3118583F312880E
:10359C00BFF36F8F01F0EBFD48B10022826701F0A1
:1035AC006CFD29460748BDE8384000F05FBBD4E904
:1035BC0002329A4218BF0133A36085F31188BFF31E
:1035CC006F8F38BD3404002013B54FF02004EFF397
:1035DC00118184F31288BFF36F8F846844B1013C6E
:1035EC00846081F31188BFF36F8F002002B010BD8F
:1035FC0052EA030406D181F31188BFF36F8F6FF089
:10360C000F00F3E7CDE900230246024800F0CAFAA6
:10361C00ECE700BF340400202DE9F04F4A4E85B092
:10362C0004464FF0FF384FF0FF394FF02003EFF313
:10363C00118783F31288BFF36F8FD4F880508DB944
:10364C00022104F1980001F0A7FC002843D10023CB
:10365C00CDE90089029304F1880239463B4800F019
:10366C000FFCE2E7D4F884202B68C4F88030954234
:10367C0008BFC4F88430D4F8983043F00203C4F87F
:10368C009830EB6823F0040343F00103EB606B68A4
:10369C0087F31188BFF36F8F284698474FF02003AC
:1036AC00EFF3118B83F31288BFF36F8FEB689907DD
:1036BC0023F0010219D4EA60D4F8983023F0020305
:1036CC00C4F898308BF31188BFF36F8FDB05ACD443
:1036DC0000F034FBA9E704F19005002201212846F3
:1036EC0001F098FD0028F8D1B1E7306823F003030E
:1036FC00EB600028E0D00027D0F800A03B46002863
:10370C00DAD04268954201460CD101689FB97268C3
:10371C003160824200D1716040F8083BFFF730FF06
:10372C0039460023BAF1000F0BD0DAF800205046CE
:10373C000F469246E3E739607268824208BF7760B1
:10374C00EAE75246F3E700BFF403002034040020FC
:10375C00F8B5C3689A0704460F46C3F340062CD449
:10376C005B071AD40B680BB983680B60E368DD0741
:10377C0044BFA3683B603D684CBF02260126002D68
:10378C003AD01F4B9B68AB420AD0D5F89830D8077B
:10379C00C3F3800214D46FF0120600233B6025E0C3
:1037AC0001F0C8FBD5F898300028F0D1D907C3F345
:1037BC00C002F0D552B15B0708D46FF00F06ECE7EE
:1037CC00002AFAD1C3F3C003002BF6D100232360E7
:1037DC00D5F8843063B9C5E92044284601F0E7FBED
:1037EC00E36843F00403E3603B68A3603046F8BD34
:1037FC001C60C5F88440F0E76FF01506CDE700BFFC
:10380C00D40300200146014801F0ECBB300200203B
:10381C00F0B589B004460020C4E920000E9D04F1E7
:10382C008800C4E9220004F19000C4E924001DB30F
:10383C002879002840F2011008BF0120C4F8980034
:10384C0000204FF0FF364FF0FF37CDE90330CDE9C4
:10385C000100CDE90667094B00942046FFF712FDE5
:10386C0025B1296811B1204601F06AFB204609B048
:10387C00BDE8F04001F067BB0120DFE72536000012
:10388C00C3897F2B12D80A4B1B6863B1094B90F983
:10389C000E201B689A4209DB437BDB0606D1064BE4
:1038AC00C31A18BF012303F0010070470023FAE785
:1038BC00040400200004002010010020044BC01A56
:1038CC00044BC0105843044B01221A54704700BFDC
:1038DC0010020020ABAAAAAA3404002070B50E4B2B
:1038EC000E4C1E7C06EB460304EBC3040546204637
:1038FC0001F0B3FC0A4B002228469A55FFF7C0FF93
:10390C0048B1084B08491A68013A2046D317BDE85C
:10391C00704000F027BB70BDD403002010020020C3
:10392C003404002004040020C938000038B50D4DC3
:10393C002B4653F8184F9C4200D004B9EC68AB6886
:10394C0038B95A7BD20604D1A26912B9DA897F2A16
:10395C0005D89C4202D02046FFF7C0FF23466B617E
:10396C0038BD00BFD403002070B590F90D20437B07
:10397C00002A014604DA03F07F03437301F043FB92
:10398C004B7B154A63F07F0310464B7350F8183F7E
:10399C00D469834208BF002323B9C1E90004216024
:1039AC00D1610CE091F90E5093F90E60B5420ED036
:1039BC00AE420CDD5868C1E9003001605960906876
:1039CC00431A5842BDE870405841FFF7AFBF9C42C4
:1039DC00E3D01B68E0E700BFD403002070B490F97B
:1039EC000D30427B002B29DBD30627D183692BBBFF
:1039FC00134962F07F0242730A4652F8184F944200
:103A0C0018BF2346CC6923B9C0E900242060C861E3
:103A1C000CE090F90E5093F90E60B5420AD0AE420C
:103A2C0008DD5A68C0E900321060586070BC002094
:103A3C00FFF77CBFA342E7D01B68E4E770BC70477C
:103A4C00D403002008B590F90D20437B002A0146D1
:103A5C0004DA03F07F03437301F0D5FA044B986842
:103A6C00431A58425841BDE80840FFF75FBF00BFFA
:103A7C00D403002070B515461C46064601F0D5FA55
:103A8C00B4F1FF3F08BFB5F1FF3F08D02A462346EB
:103A9C0006F118000249BDE8704000F063BA70BD31
:103AAC00455100002DE9F041002A437B0E460CBF26
:103ABC0010210821194204460AD10B43DD0903F0F9
:103ACC009F0211D14273082914D00120FFF72EFF59
:103ADC001B4B9B68A3422CD1EFF305834BBB3046A9
:103AEC00BDE8F041FDF7C6B803F01F03437301F0C6
:103AFC008AFAE8E7A36813B1204601F08CFA04F1C6
:103B0C00180001F0AAFB04F158074FF00008A56D4E
:103B1C00BD42DAD0002DD8D0284601F07CFA05F150
:103B2C00180001F09AFBC5F878802846FFF756FF7D
:103B3C00EDE786F31188BFF36F8FBDE8F08100BF0E
:103B4C00D403002038B54FF02003EFF3118583F335
:103B5C001288BFF36F8F104B104A9C681068A042FC
:103B6C0006D1FFF7BBFE85F31188BFF36F8F38BD0D
:103B7C0000211B7C11600A4AD35C002BF3D0204639
:103B8C00FFF77EFE0028EED0637BDB0602D12046D9
:103B9C00FFF7EAFE2046E4E7D4030020FC030020F4
:103BAC003404002070B50C480C4D86682E600C4611
:103BBC001146DDE904234FF02006EFF3118586F35F
:103BCC001288BFF36F8F8068FFF754FF2046BDE863
:103BDC007040FDF74FB800BFD4030020FC03002059
:103BEC00F8B504464FF02003EFF3118683F31288E7
:103BFC00BFF36F8F437BDA0649B219D18569BDB922
:103C0C0003F07F03437301F0FEF9437B164A817383
:103C1C0063F07F034373134653F8180F984218BF91
:103C2C000546D0695DB9C4E900300460D46111E087
:103C3C00A173002086F31188BFF36F8FF8BD95F93F
:103C4C000E70B9420BD08F4209DD6B68C4E900538A
:103C5C001C606C600120FFF769FE0120EAE7A842B6
:103C6C00E1D02D68DEE700BFD403002049B9EFF3A3
:103C7C00058030B9054B5A699B689A4201D0FCF714
:103C8C00F9BF81F31188BFF36F8F7047D403002005
:103C9C0010B54FF02002EFF3118482F31288BFF3BA
:103CAC006F8F427B510704D484F31188BFF36F8F5D
:103CBC0010BD22F004024273FFF790FE2146024829
:103CCC00BDE81040FFF7D2BF350400204FF02003B1
:103CDC00EFF3118183F31288BFF36F8F044B9A6853
:103CEC00D37B013BD37381F31188BFF36F8F704784
:103CFC00D403002010B54FF02003EFF3118483F3AD
:103D0C001288BFF36F8F084B9A68D37B0133D37340
:103D1C000020FFF70BFE84F31188BFF36F8FBDE813
:103D2C00104001F04CBA00BFD4030020024B03F149
:103D3C001802C3E906227047D4030020F8B54FF0EF
:103D4C002003EFF3118583F31288BFF36F8F1949AA
:103D5C008868437B03F07F03437301F054F98B684D
:103D6C005A7B084662F07F025A7350F8182FCC69C0
:103D7C00824208BF002222B9C3E900042360CB6150
:103D8C000CE093F90E6092F90E70BE420ED0B74261
:103D9C000CDD5168C3E900210B6053600120FFF773
:103DAC00C5FD2846BDE8F840FCF764BFA242E3D04D
:103DBC001268E0E7D403002050EA01032DE9F0413A
:103DCC0005460E4603D1FFF7B9FF00202CE0831CFB
:103DDC0071F1FF332ADB01F056FA2C184FF0200357
:103DEC00EFF3118883F31288BFF36F8F114F124BCF
:103DFC00B8681860FFF726FEB86810492A463346A3
:103E0C00183000F0AFF8BA68537B43F010035373CB
:103E1C004046FCF72FFF01F036FA201A63EB030340
:103E2C00012873F10003D0DBBDE8F0816FF00104D1
:103E3C00241AD3E7D4030020FC03002045510000D2
:103E4C00B1F1FF3F08BFB0F1FF3F08B506D1084BF9
:103E5C00986801F022F94FF0FF3008BDFFF7ACFF76
:103E6C004FF47A7380FB0303C00B40EA4340F4E742
:103E7C00D4030020014B9868704700BFD403002086
:103E8C00D3B5DDE90667089CCDE90067FFF78AFE2C
:103E9C001CB1034B9B685B69236002B0D0BD00BFB3
:103EAC00D403002008B50648064A0749121A01F047
:103EBC003FF8BDE80840054A0549064801F038B806
:103ECC0000000020F000002040580000000000001E
:103EDC004058000000000020034B1B680BB9FEF794
:103EEC0013BA0020704700BF0804002010B50E4B19
:103EFC001C689C4204D1FFF7EFFF6FF0004010BD2F
:103F0C00FFF7EAFF002CF8D0D4E904321B1A62EB5D
:103F1C00E072B3F1004F72F10001EEDA002AACBF8F
:103F2C0018460020EBE700BF8000002030B570B1D0
:103F3C000B4B5B6898420AD0036843B1D3E9042168
:103F4C00D0E90445121941EB0501C3E90421D0E97C
:103F5C00003213605A600023C0E9003330BD00BF4B
:103F6C0080000020B3F1FF3F08BFB2F1FF3FF8B56E
:103F7C0004461D4616465CD081604FF02003EFF3DB
:103F8C00118783F31288BFF36F8F013275F1FF3302
:103F9C0024DA2D49D1E900206FF001039B1A4FF070
:103FAC00FF3262EB00009E1B60EB0500012E70F1EE
:103FBC00000301DA01260020C4E90460234ED6F880
:103FCC0000C07568B44508BF4FF0000CBCF1000F81
:103FDC000DD1C4E900652C6074601CE0FFF77CFF18
:103FEC00013645F10005361845EBE070E4E7DCE9F5
:103FFC000420D4E90431934271EB000E1ADAD21A80
:10400C00DCF8043060EB0100CCE90420C4E900C307
:10401C001C60CCF804403368B34206D09C4204D1F7
:10402C00FFF764FF0021FEF741F987F31188BFF316
:10403C006F8FF8BD9B1A61EB0001AC45C4E90431EC
:10404C00C7D0DCF800C0C1E72802002080000020A7
:10405C002DE9F84F4FF02003EFF3118C83F3128806
:10406C00BFF36F8FDFF8B0A0DFF8B0902C4FC9F81A
:10407C000000DAF800000024504508BF002000259D
:10408C00D7E90021D9F80030E04680B3D0E9046CC0
:10409C004FEAE37EB3427EEB0C0B05DAF61A6CEBBF
:1040AC000E04C0E9046422E0B21841EBE671C0E9E9
:1040BC000445C7E90021FFF739FF88F31188BFF3E6
:1040CC006F8F836898474FF02003EFF3118883F3C9
:1040DC001288BFF36F8FD9F80030DAF800009B1B01
:1040EC005045C446C9F80030CAD1D7E900219A1806
:1040FC0041EBE3730024C7E90023C9F80040FFF744
:10410C00F5FE2146FEF7D2F888F31188BFF36F8FC6
:10411C00BDE8F84FFFF716BD800000200804002012
:10412C002802002010B54FF02003EFF3118483F325
:10413C001288BFF36F8FFFF7CFFE064A0346D2E912
:10414C000001181841EBE37184F31188BFF36F8FF2
:10415C0010BD00BF28020020F8B504464FF0200324
:10416C00EFF3118783F31288BFF36F8F026822B1CC
:10417C0087F31188BFF36F8FF8BDD0E90A36581C4E
:10418C0046F10001022871F1000127D3012B76F1D1
:10419C000001BCBF012316465D1E46F1FF3601F03F
:1041AC0076F8013041F10001401946EB010101287C
:1041BC0071F100013ADB01F06AF8013041F10001C4
:1041CC006FF00102401946EB0103121A4FF0FF3158
:1041DC0061EB030318492046FFF7C4FE236B013340
:1041EC002363236A73B187F31188BFF36F8F236A3C
:1041FC00204698474FF02003EFF3118783F3128882
:10420C00BFF36F8F54F8185FA542B1D0002DAFD01B
:10421C00284600F05DFF0023AB6787F31188BFF3DE
:10422C006F8F2846BDE8F84000F027BF6FF0010201
:10423C004FF0FF33CEE700BF654100002DE9F041A0
:10424C0005461C4690461F464FF02003EFF311869F
:10425C0083F31288BFF36F8FB4F1FF3F08BFB2F145
:10426C00FF3F05D186F31188BFF36F8FBDE8F08156
:10427C00531C74F1FF3309DB012A74F10003BCBF3A
:10428C000122002412F1FF3844F1FF37284600F0D8
:10429C00E4FFDDE906010023C5E90A012B630349AC
:1042AC0042463B462846FFF75DFEDBE765410000D2
:1042BC00014800F0D1BA00BFF957000038B5064CE0
:1042CC00064DAC4201D3002038BDD4E90112204682
:1042DC0000F0FCFF1434F4E7C8000020C8000020F4
:1042EC001FB5094B029302AB002400930749084801
:1042FC008DF80C404FF0FF334FF48062FFF788FAD3
:10430C00204604B010BD00BF27580000401200200A
:10431C00300200202DE9F04F8DB043680293837872
:10432C0015469A07804640F10D8100240E78002E28
:10433C0000F00A81252E0BD04B1C03930134029BF9
:10434C004146304698470028C0F2F6800399EDE7C5
:10435C004E788B1C252E0393F0D00027B946BB4614
:10436C00BBF11F0F38D8A6F12003102B0AD8DFE8B9
:10437C0003F02A0909300909092109090928092D1D
:10438C0009091F00A6F13003092B33D92A2E37D186
:10439C001BF0400F55F8043B40F08280002BA7BF68
:1043AC004BF0200B9946C3F100094BF0280B01E0B0
:1043BC004BF0010B039B13F8016B0393002ECFD131
:1043CC0030E04BF0020B4BF0040BF3E74BF0080B17
:1043DC00F0E74BF0100BEDE7BBF17F0F19D8A6F10E
:1043EC003003092BD2D81BF0400F03D00A2101FB5C
:1043FC000737DFE70A2101FB09394BF0200BD9E71E
:10440C002E2E06D11BF0400F40F09E804BF0400B3F
:10441C00D0E76C2E31D02BD8682E36D06A2E3CD0FB
:10442C004C2E3AD0002F46F02003B8BF2BF04002A0
:10443C00A3F16501BCBF1FFA82FB0027022901D939
:10444C00612B2FD1073525F00705DFF8ACA2083515
:10445C0007271BF0080F66D00AEB070B56465E4584
:10446C0063D1A4EB0A0A06EB0A02A9EB07096FE178
:10447C00742E9FD07A2E9DD0D4E71BF0800F18BFDE
:10448C004BF4007B4BF0800B94E71BF4807F18BF40
:10449C004BF4007B4BF4807B8CE74BF4207B89E75F
:1044AC001F4687E7A6F16301122900F2F080DFE8CE
:1044BC0011F013004F00EE00EE00EE00EE004F0086
:1044CC00EE00EE00EE00EE00EE00FE00E900EE0065
:1044DC00EE001B00EE00AF0055F8043B8DF81830D1
:1044EC0001270DF1180AB4E755F804AB834BBAF168
:1044FC00000F08BF9A461BF0400F14BF39464FF00F
:10450C00FF31504600F000FF0746A2E7029B4146F0
:10451C002020984700280FDB013EB742F6D34C44CD
:10452C00A41BB14698E74E46F7E716F8010B029B21
:10453C0041469847002892DA98F8023043F0040379
:10454C0088F802304FF0FF3420460DB0BDE8F08FF4
:10455C001BF0800F34D01BF4007F2CD0073525F0D6
:10456C000705AA4669685AF8080B2BF010050029B4
:10457C00ADB237DA404261EB410145F480650DF193
:10458C00180B0A235A4600F0CBFEA0EB0B03019349
:10459C006B0662D5019B25F001019F4289B240F365
:1045AC00A180002E00F0998015F0100240F09C8044
:1045BC00BB460D4623E0AA465AF8040BC117D4E7B4
:1045CC00AA461BF4807F5AF8041B01D10846F5E774
:1045DC001BF4007F15BF48B208B241F3C01141F380
:1045EC00C031C2E750EA0103C9D11BF0400FC6D05D
:1045FC00002FC4D12BF0110295B2BB46019740F2AB
:10460C00064115EA01021CBF0BF1010B00222CE044
:10461C002BF010021FFA82FB0A231BF0800C49D0EE
:10462C001BF400711DBF073525F00705AA46AA46E5
:10463C001ABF5AF8080B69685AF8040B50EA0105BE
:10464C0045D12BF016051BF0400FADB242D0002F18
:10465C0040D12BF0170295B2019715F0100248D0FB
:10466C00019B002E42D103F1010B29075AD4EB0711
:10467C0006D5D9456FDD0199A9EB0B035F18CB4625
:10468C005B4649E04BF0100B10237826C5E7782BDE
:10469C0004D1C6F1780343F01003BEE7029B4146F8
:1046AC00252098470028FFF647AF023447E6082339
:1046BC000026B2E7AA461BF480715AF8040BBDD051
:1046CC001BF400711ABFC0B2614680B2B6E72BF082
:1046DC00060295B20DF1180B54E725F01105ADB299
:1046EC00BB468CE70D46B8E73B460D4603F1020B83
:1046FC00BBE7DDF804B082E7375800003058000003
:10470C00CDE904324146029B202098470028FFF651
:10471C0013AF049B059A01339945F1DCA4EB0B0113
:10472C00CC189B460AB3029B414630209847002880
:10473C00FFF602AF8EB901342744019B391B994215
:10474C0024DC1D465DBB019AA9EB0B09224455469E
:10475C001446914435E0019F92E7023441463046BD
:10476C00029B98470028E7DAE6E640F206410D4244
:10477C00E2D015F0020F14BF2B20202015F4806F0F
:10478C0004F10104414618BF2D20E9E7029B414684
:10479C0030209847002804F10104CEDACCE606ABB1
:1047AC00013D4146585D029B98470028CADAC3E692
:1047BC00029B414620209847002804F10104FFF693
:1047CC00BBAEA9EB0403002BF2DCBFE5704770B461
:1047DC00034600681979DB880669D0F808C034688C
:1047EC00DA0754BF43F4B01383F4D01301258D4082
:1047FC0023F48012DB074CBF2C43AC43346070BCF9
:10480C00DCF80030184703460A4600681979012382
:10481C0003FA01F103691B68194203D022B18368C2
:10482C001B6903E0002AFAD08368DB68184738B5A7
:10483C00002120EAE0744FF4004540F2E7304FF4D9
:10484C007A720023C4FB0501FBF742FCBDE838403B
:10485C00FFF7F6BA002070470FB407B504A951F85A
:10486C00040B0191FBF794FE03B05DF804EB04B06C
:10487C00704700EBC100408840087047F8B503460C
:10488C00FFF7F7FFB0FA80F0C0F11F0003EB800CCC
:10489C00CA00DCF81060171D0C4606328DB256B9F2
:1048AC00012101FA00F0D9680143D960CCF810401D
:1048BC00DD539D52F8BDF1000431585AD85303EB27
:1048CC00C0009E52C5805D52F4E7043A2DE9F041D8
:1048DC00CC1D114424F0070421F007010E1BF7082E
:1048EC00B7FA87F2C2F12405AD004FF00008073586
:1048FC00C2F12002ED0804604146A760C4F80C80A8
:10490C00920004F1100000F0F7FC6B0043F001037F
:10491C00638004EBC5027B1B5900A4F80080518016
:10492C00A21924F83550A2F80280A35304EBC70354
:10493C0029465A8842F001025A802046BDE8F041CF
:10494C00FFF79CBF038B13F0070305D10368002B03
:10495C000CBF002003207047022B05D1408BB0FA0E
:10496C0080F0400980007047012B05D10368002BB3
:10497C000CBF0020052070470020704710B50C4676
:10498C0000B111B96FF0150010BD081D00F0BAF898
:10499C000028F9D1A368032BF6D9F3E72DE9F041F0
:1049AC000D4607461946281D90461E4600F0BBF8DA
:1049BC00044638B13346424629463846A446BDE83B
:1049CC00F0416047BDE8F08110B44FF02004EFF3E4
:1049DC00118284F31288BFF36F8F416110BC0121E7
:1049EC00FBF708BE38B50C46054658B151B10B68FB
:1049FC0043B14B6833B11C22002100F07DFC2C61CB
:104A0C00002038BD6FF01500FBE770B505460E466B
:104A1C00FFF7B4FF041E15DB4FF02003EFF31182F8
:104A2C0083F31288BFF36F8F6B8B2C8B4FF6FF7158
:104A3C008B4204F0070407D182F31188BFF36F8F08
:104A4C006FF00A04204670BD022C0CD101336B832D
:104A5C0082F31188BFF36F8F00232246314628461C
:104A6C00FFF79CFFEEE7062C14D8DFE804F00413E4
:104A7C001313041A0400002333606B683BB9C5E9B7
:104A8C000066ACB902212846FBF7B4FDDAE71E60DC
:104A9C006E60F6E782F31188BFF36F8F6FF004043A
:104AAC00D0E782F31188BFF36F8F6FF08504C9E7ED
:104ABC0082F31188BFF36F8FC4E710B54FF020035A
:104ACC00EFF3118283F31288BFF36F8F048B04F022
:104ADC000704022C0AD0012C0CBF6FF004006FF0FD
:104AEC00850082F31188BFF36F8F08E0438B013B85
:104AFC009BB2438323B92146FBF77CFD204610BDB6
:104B0C002046EEE7034658B1426802F00302012A40
:104B1C0003D0032A04D1026812B1002098607047B8
:104B2C006FF0150070474268816002F00302032A9F
:104B3C004FF0000203460CBF006810465A607047E5
:104B4C007047FEF749BA01460068FEF745BA08B54A
:104B5C00FBF764FEBDE80840FBF792BE0021012084
:104B6C00FFF7EFBF202809D9B0F1004F08D8013862
:104B7C00B0FA80F0C0F11F00400070470820704769
:104B8C003E2070472DE9FF410E46984614460546D7
:104B9C000027B74220DA6868C8B1B8F1000F07D017
:104BAC00431E184216D11F2814D92A68134211D15A
:104BBC002B680193FFF7D6FFAB6803430393E3B273
:104BCC00072B07D8204601A9FCF7A8F901340137B7
:104BDC000C35DEE76FF01504204604B0BDE8F0811B
:104BEC000369C9B20C2201FB0233186C00F00700F8
:104BFC0070474FF02003EFF3118283F31288BFF359
:104C0C006F8F036803F0C00343F00203036082F369
:104C1C001188BFF36F8F704770B5C9B203694FF03D
:104C2C002004EFF3118584F31288BFF36F8F0C26E9
:104C3C0006FB0134246C14F0C00408D0A24206D048
:104C4C0085F31188BFF36F8F4FF0FF3070BD06FBFB
:104C5C00013301221A6485F31188BFF36F8F436807
:104C6C0003EBC1035B6898470020EFE78022FFF756
:104C7C00D3BFF8B5069F0469C9B24FF02005EFF316
:104C8C00118685F31288BFF36F8F0C2505FB014449
:104C9C00256C05F0070CBCF1010F0CD1276486F3D1
:104CAC001188BFF36F8FC4E90E23436853F831307A
:104CBC0098470020F8BD05F0C005AF4286F3118877
:104CCC00BFF36F8F0CBF6FF077004FF0FF30F1E741
:104CDC0013B580240094FFF7CCFF02B010BD10B4C4
:104CEC000069CBB21C2403FB0400002110BC10474C
:104CFC001046FEF745BC08B5FCF73CFCBDE8084087
:104D0C00002000F08DB8FCF785BB43685B68D3F8D6
:104D1C0010350B600020704743685B6802EA0100A5
:104D2C0021EA0201C3F80805C3F80C1500207047EE
:104D3C0043685B680020C3F80815704743685B68DC
:104D4C000020C3F80C15704743685A68D2F8043534
:104D5C0021EA03000B40C2F80805C2F80C3500200C
:104D6C00704710B503695868F8B1884219D19C682E
:104D7C0008685860A14200D19860002008602AB1F0
:104D8C005A680A609A68596002B99960002010E06C
:104D9C00814206D10868206098688142EDD19C6000
:104DAC00EBE7044600680028F2D1002AE8D16FF046
:104DBC00150010BD30B543681360057A446804EBE8
:104DCC00C504A34202D36FF0010030BD5C798C4264
:104DDC0001D00833F0E70020F7E70120704700F11D
:104DEC0050039B009BB203F1804303F588330022F0
:104DFC001A601B68704708B50020FBF7CFFE4FF018
:104E0C008053D3F83001421C04BF4FF0704393F829
:104E1C00E00F831F584258417047004700F076B8A6
:104E2C00FDF718BC036803F01F025B0902600CBF9E
:104E3C004FF0A04000207047F7B5019001A8DDE9C4
:104E4C00084716461D46FFF7EDFF019BB6F1000C17
:104E5C0018BF4FF0010C00EB83000B1E18BF012391
:104E6C00002D43EA4C0314BF4FF00C0C4FF0000C18
:104E7C00002C43EA0C0314BF4FF4E06C4FF0000C11
:104E8C00002F43EA0C03D0F8002714BF4FF4403C2A
:104E9C004FF0000C43EA0C0322EA030301B109783A
:104EAC000EB13678760019430DB12D78AD00314333
:104EBC000CB12478240229430FB13F783F040C43F2
:104ECC003C43C0F8004703B0F0BD1FB50DF10F0314
:104EDC00019300238DF80F1000931A461946FFF723
:104EEC00ABFF05B05DF804FB024611F0010007D0E2
:104EFC004FF0A041D1F820351360C1F8203503B92B
:104F0C0000207047FDF7B0BDFDF78EBD08B1FCF772
:104F1C00FDB87047704740B1C368587810F0010075
:104F2C001EBF1878B0FA80F04009704700F0E4B961
:104F3C0000F0D4B9EFF30580003818BF012070479A
:104F4C006FF057007047FEF7A3BE08B54FF0200274
:104F5C00EFF3118382F31288BFF36F8FFBF788FF97
:104F6C00F4E790F90E308B4201D0FEF739BE0020E9
:104F7C00704703460020C3E90200C3E900337047C1
:104F8C003AB18A4205D3C0E90212C0E90000002000
:104F9C0070476FF015007047026801238B4022EABE
:104FAC000303036022FA01F000F00100704720B106
:104FBC0000221146883000F02DB9704713B50190CE
:104FCC0008464FF02003EFF3118483F31288BFF3EC
:104FDC006F8F01A9FEF7BCFB84F31188BFF36F8FB1
:104FEC0002B010BD10B5FFF7E9FF041E09DD4FF04C
:104FFC002003EFF3118083F31288BFF36F8F00F05F
:10500C00D2F8204610BDD0E9003213605A6000235C
:10501C00C0E90033704708B5FFF7F5FF437B23F079
:10502C00020343730023836008BD38B504460D4664
:10503C00FEF708FD637B43F002036373E5B1A560E3
:10504C002B689D4209D16B68C4E900531C606C60ED
:10505C0012E06A689342F6D01B68002BF3D094F9E7
:10506C000E2093F90E108A42F3D09142F1DD5A686A
:10507C00C4E9003214605C6038BD10B54FF02003F9
:10508C00EFF3118483F31288BFF36F8FFEF7A6FC46
:10509C0084F31188BFF36F8F10BD10B50446183020
:1050AC0000F0DBF84FF02003EFF3118183F312884B
:1050BC00BFF36F8F627B12F0100204D081F3118862
:1050CC00BFF36F8F10BD2046BDE81040FEF7EABC61
:1050DC0008B54FF02002EFF3118182F31288BFF371
:1050EC006F8F83680BB1FFF796FF81F31188BFF3C5
:1050FC006F8F08BD38B504464FF02003EFF31185D0
:10510C0083F31288BFF36F8F437B13F0280F0BD1FF
:10511C0083680BB1FFF77FFF637B51B903F0FB038F
:10512C0063732046FEF75AFC85F31188BFF36F8F2B
:10513C0038BD03F0EB03F3E701211838FFF7DABFB2
:10514C0008B503464FF02002EFF3118182F3128869
:10515C00BFF36F8F0068834207D008B1FFF75BFF86
:10516C0081F31188BFF36F8F08BD0020F8E738B5C5
:10517C004FF02003EFF3118583F31288BFF36F8F89
:10518C000468A0420DD034B12046FFF744FF04F16F
:10519C00180000F062F885F31188BFF36F8F20467A
:1051AC0038BD0024F7E7034620B9EFF305820AB9AE
:1051BC00FBF760BD83F31188BFF36F8F70474FF01F
:1051CC002003EFF3118083F31288BFF36F8FFFF787
:1051DC00EABF4FF02002EFF3118182F31288BFF384
:1051EC006F8F027BD2070AD581F31188BFF36F8FC3
:1051FC00404080F311884FF0040002DF7047437B7E
:10520C001B0704D581F31188BFF36F8F7047012200
:10521C00FEF748BC38B54FF02003EFF3118583F34C
:10522C001288BFF36F8F0468A04212D09CB1A167A3
:10523C0062612046FFF7EFFE04F1180000F00DF854
:10524C002046FEF7CBFB012085F31188BFF36F8F4F
:10525C0038BD0020F8E72046F6E710B54FF02002E5
:10526C00EFF3118482F31288BFF36F8F03683BB1A5
:10527C00FEF75CFE002084F31188BFF36F8F10BD26
:10528C006FF01500F7E708B5FEF74CFF08BDFEF709
:10529C0049BF10B50446FFF7E0FFB0B9636A0BB124
:1052AC002046984704F11800FFF74AFF68B1FFF752
:1052BC00E4FE4FF02003EFF3118083F31288BFF369
:1052CC006F8FBDE81040FFF76EBF10BD10B400F13A
:1052DC000C04C0E9034410BCFFF7F7BA0A4491422E
:1052EC0000F1FF3300D1704710B511F8014B03F8F2
:1052FC00014F9142F9D110BD02440346934200D1B3
:10530C00704703F8011BF9E710B5024601448A42C5
:10531C00134603D01C780132002CF8D1181A10BD9A
:10532C00F0B5C3F137070446FFB203F01F03104674
:10533C00082BE6B233D0102B3ED06508A40844EA03
:10534C00817445EAC1752D194FEA910242EB510265
:10535C00290941EA02716D1842EB1212290A41EA3D
:10536C0002616D1842EB1222290C41EA02416D18C0
:10537C0042EB1242AD1842F10002EC0844EA4274CE
:10538C00D10804EB8402A6EB4205EDB2092D0CD931
:10539C000134A5F10A0541F10001EDB212E0E40877
:1053AC0044EA417406F00705C908303554EA010295
:1053BC0000F8015BBCD1F0BD240944EA017406F08D
:1053CC000F050909092D84BFED19EDB2EDE70000B9
:0C53DC000148006870470000D402002067
:0853E80028ADFF7F0100000069
:1053F0000911000000000000A51100003854000051
:10540000C9420000000000009D1500004C5400003F
:10541000F91C00006054000055210000000000004D
:10542000E510000000000000ED4200000000000058
:085430004D1A00007454000045
:105438009F57000090560000A056000088000020EA
:1054480004030020AE570000BC560000D4560000EC
:105458008A00002078030020D2570000145700006B
:10546800345700008E00002014000020C4570000AC
:1054780000000000F85600008C0000208403002083
:10548800C5280000274E000000000000694B0000FE
:1054980060540000291C000000000000694B000057
:1054A80000000000694B000000000000694B00008C
:1054B800852E0000274E000000000000694B000008
:1054C80000000000694B000000000000694B00006C
:1054D80000000000694B000000000000694B00005C
:1054E80074540000BD19000000000000694B000062
:1054F80000000000694B000000000000694B00003C
:1055080000000000694B000000000000E5210000D9
:1055180000000000694B000000000000694B00001B
:1055280000000000694B000000000000694B00000B
:1055380000000000694B000000000000694B0000FB
:1055480000000000694B000000000000694B0000EB
:1055580000000000694B000000000000694B0000DB
:1055680000000000694B000000000000694B0000CB
:1055780000000000694B000000000000694B0000BB
:1055880000000000694B000000000000694B0000AB
:1055980000000000694B000000000000694B00009B
:1055A80000000000694B000000000000694B00008B
:0855B80000000000694B000037
:1055C00052000000580000004E0055415254206423
:1055D0006576696365206E6F7420666F756E6421F1
:1055E000004858547B415050524F544543542D630A
:1055F000616E2D62652D62797061737365647D00E3
:10560000554152542064657669636520646F657303
:10561000206E6F7420737570706F727420696E7471
:105620006572727570742D64726976656E20415072
:10563000490A000000000000000000000000000017
:105640000338FDD8704700004C54000003000000F0
:105650004C54000002000000000000200000000088
:1056600000000B06020000006C5600000000000065
:105670009057000024000207000000209857000007
:105680001E000B116111000031110000000000002C
:105690006D1200002913000005130000034D0000E7
:1056A000D1120000794C0000DD4C00000000000029
:1056B000ED4B00000000000000000000FFFFFFFFB6
:1056C00000000050000000000000000000600040EA
:1056D0000000000021160000174D0000254D0000BD
:1056E0003D4D0000494D0000554D0000A117000040
:1056F0006F4D0000000000000000000000000000EE
:1057000000000000D5190000911900000000000001
:10571000000000001857000000200040245700003F
:10572000010000002C5700000200000000000000F3
:1057300001000100AD1A0000751C0000D11A000024
:10574000B51E0000E11A00000D1B0000591B0000EF
:10575000851B0000651B0000751B0000851B0000F9
:10576000AD1B0000C11B0000D11B0000E11B0000AD
:10577000E74D0000151C0000F0530000F05300003E
:105780001854000020540000385400003854000021
:10579000464C4153485F30005352414D5F300063E7
:1057A0006C6F636B403430303030303030006770B5
:1057B000696F403530303030303030000001020346
:1057C0000405060774656D70403430303063303046
:1057D0003000756172744034303030323030300017
:1057E00000000000010000000101000001010101B2
:1057F000000000006D61696E002A2A2A20426F6F46
:1058000074696E67206E524620436F6E6E656374D6
:105810002053444B20333735386263626661356309
:1058200064202A2A2A0A00737973776F726B7100D9
:10583000286E756C6C29002A666C6F61742A0000F2
:105840006148000000000000A114000000000000FA
:105850000000000000C20100000103000000000081
:105860000000000000000000000000000000000038
:105870000000000000000000000000000000000028
:105880000000000000000000000000000000000018
:105890000000000000000000000000000000000008
:1058A00000000000000000000000000008000000F0
:1058B000FF000000000000000100000000000000E8
:0858C0008000002080000020A0
:0858C8000000000000000000D8
:1058D0000000000000000000654100000000000022
:1058E0000000000000000000A8000020A800002028
:1058F000134D000000000000000000000000000048
:0859000000000000000000009F
:10590800C8000020C8000020200000000A00000095
:1059180080160020C0170020801600208016002066
:08592800000000000000000077
:0459300015E015E089
:0400000300000B5599
:00000001FF
